S0190000555741435F41726475696E6F5F3266736B2E73726563D5
S113000071C000008EC000008CC000008AC00000D7
S113001088C0000086C0000084C0000082C00000C8
S113002080C000007EC000007CC000007AC00000D8
S113003078C0000076C0000074C0000072C00000E8
S113004070C000006EC000006CC000006AC00000F8
S113005068C0000066C0000064C0000062C0000008
S113006060C000005EC000005CC000005AC0000018
S113007058C0000056C0000054C0000052C0000028
S113008050C000004EC000004CC000004AC0000038
S113009048C0000046C0000044C0000042C0000048
S11300A040C000003EC000003CC000003AC0000058
S11300B038C0000036C0000034C0000032C0000068
S11300C030C000002EC000002CC000002AC0000078
S11300D028C0000026C0000024C0000022C0000088
S11300E020C0000011241FBECFEFD1E2DEBFCDBF80
S11300F000E00CBF12E0A0E0B2E0EEE3FDE000E0BF
S11301000BBF02C007900D92A23BB107D9F725E0BF
S1130110A2EBB2E001C01D92AE3DB207E1F74AD2B4
S11301200CC66ECF2F923F924F925F926F927F9246
S11301308F929F92AF92BF92CF92DF92EF92FF92F3
S11301400F931F93CF93DF93CDB7DEB760970FB6AE
S1130150F894DEBF0FBECDBF161617060CF080C094
S1130160FC01680F791F612C712C762C6624819117
S1130170682AE617F707C9F7211102C0762C66240E
S11301806A01E12CF12C00E010E098014987DA863D
S1130190EB86FC860D871E872F87388B0FEF601642
S11301A0710408F462C0930140E050E060E070E044
S11301B0CB0169823A834B835C836D837E838F8317
S11301C0988729853A854B855C856D857E858F85E5
S11301D09889A980BA80C12CD12CE12CF12C00E0A3
S11301E010E0C5D280F5822E932E242E552E462E55
S11301F0372EF82FE92F282D392D422D552D642D1A
S1130200732D8F2F9E2F01E07BD2822E932E242ECE
S1130210552E462E372EF82FE92FA980BA80CB8091
S1130220DC80ED80FE800F811885A1D220F3552D4E
S11302308F2F9E2F282D392D642D732D01E07BD215
S1130240822E932E02C089849A84682479243FEFF5
S11302506316710408F0A7CF08C0612C712C05C087
S11302602111FBCF612C712C89CFC30160960FB68D
S1130270F894DEBF0FBECDBFDF91CF911F910F91D8
S1130280FF90EF90DF90CF90BF90AF909F908F90B2
S11302907F906F905F904F903F902F900895EF92D2
S11302A0FF920F931F93CF93DF93CDB7DEB7C4585C
S11302B0D3400FB6F894DEBF0FBECDBF8C01FE0154
S11302C031969E01275F3F4F81E08193E217F30748
S11302D0E1F788E090E09093B3028093B202780152
S11302E0CE018F5D9C4FD80120E030E006C04D91D7
S11302F0FC014193CF012F5F3F4FF8010190002093
S1130300E9F73197BF01601B710B2617370778F3A4
S113031020E047E651E0CE018F5D9C4F03DF40E0D3
S113032050E027C0D7018D917D016091B202709198
S1130330B302E1E0F0E0EC0FFD1FE60FF71F9B01B5
S1130340285F3F4FA1E0B0E0AC0FBD1F2A0F3B1F59
S1130350982F991F9927991F9193880FE217F307F4
S1130360B9F7685F7F4F7093B3026093B2024F5F37
S11303705F4FF80101900020E9F73197E01BF10B82
S11303804E175F0778F24091B2025091B30281E0B8
S113039090E08C0F9D1F840F951F9A01285F3F4F9B
S11303A0E1E0F0E0EC0FFD1F2E0F3F1F01968217D6
S11303B09307E1F788E090E00197F1F7405F5F4F22
S11303C05093B3024093B202CE010196CC57DC4F56
S11303D00FB6F894DEBF0FBECDBFDF91CF911F9152
S11303E00F91FF90EF9008950F931F93CF93DF9396
S11303F0CDB7DEB7C85CD1090FB6F894DEBF0FBE27
S1130400CDBF19821A821B821C82FE01359620E61A
S1130410DF011D922A95E9F7FC01062F172F90E0C2
S113042060E070E020E030E080E016C0419141706F
S1130430990F942B2F5F3F4FA90147705527452BE8
S113044059F441E050E04C0F5D1F460F571FDA018D
S11304509C936F5F7F4F982F2017310739F7AE01B8
S11304604F5F5F4F9E012B593F4F80E090E0DA01D0
S113047007C0FA016191AF01F90161939F010196EF
S1130480FD0101900020E9F73197BF016A1B7B0B46
S11304908617970770F321E047E651E0CE018B59A8
S11304A09F4F40DECE010196C853DF4F0FB6F8943C
S11304B0DEBF0FBECDBFDF91CF911F910F91089585
S11304C09F92AF92BF92CF92DF92EF92FF920F93DF
S11304D01F93CF93DF93D82FC92F2091B3022F936B
S11304E02091B2022F932CE132E03F932F9348D115
S11304F00F900F900F900F902091B2023091B302A1
S1130500121613060CF04AC00D2F1C2F0F2EF4EBFD
S1130510AF2EF2E0BF2EF02DE12CF12C9924939410
S1130520D0E00F2EFCE2CF2EF2E0DF2EF02DF8010A
S11305308081811102C0289801C0289A8FE99FE028
S11305400197F1F700C00000C6B1C1700F5F1F4FE3
S11305501F92CF93892D9D2F2081211101C08D2FB2
S11305609F938F93DF92CF920BD1D501CD935D01F1
S1130570EFE9FFE03197F1F700C00000FFEFEF1A59
S1130580FF0A0F900F900F900F900F900F90809193
S1130590B2029091B302E816F9064CF2DF91CF91C2
S11305A01F910F91FF90EF90DF90CF90BF90AF908D
S11305B09F900895CF93DF93CDB7DEB7C456D1098A
S11305C00FB6F894DEBF0FBECDBFE4EBF2E084EDCE
S11305D095E01192E817F907E1F7209A3898409AC4
S11305E063D0E8EDF5E08EE092E09383828380E0CF
S11305F092E09183808352D019821A821B821C82DA
S1130600FE01359680E6DF011D928A95E9F78E0199
S11306100F5F1F4F1F930F9387E392E09F938F9376
S1130620AFD0C8013CDE7C010091B2021091B3024C
S1130630000F111F1F9282E08F932CE532E03F934D
S11306402F939ED01F930F932AE632E03F932F936C
S113065097D0C70135DF8091B3028F938091B202A6
S11306608F938CE192E09F938F938AD06091B20232
S11306707091B30284EB92E0B7DE9F938F9386E888
S113068092E09F938F937CD08BE992E08CD0289852
S11306900FB6F894DEBF0FBECDBFFFCF84B1886222
S11306A084B980E58CBD08951092D7051092D605C3
S11306B01092C5001092C400E1ECF0E080818861E2
S11306C08083E2ECF0E08081866080830895CF939C
S11306D0C82F8A3011F48DE0FADFE0ECF0E090816D
S11306E095FFFDCFC093C60080E090E0CF910895C0
S11306F0E0ECF0E080818823ECF78091C600089557
S11307000F93083090F0982F872F762F652F542F52
S1130710432F322F22270850F4CF220F331F441FB8
S1130720551F661F771F881F991F0A95B2F70F91EF
S1130730089597FB10F8169400080F93083098F06A
S11307400850232F342F452F562F672F782F892FAA
S1130750902DF4CF05949795879577956795579540
S11307604795379527950A95AAF70F9108952A1565
S11307703B054C055D056E057F05800791070895CF
S1130780CF93DF93CDB7DEB7AE014A5F5F4FFA0177
S113079061917191AF018091DA059091DB0533D0BD
S11307A0DF91CF9108950F931F93CF93DF93E0913F
S11307B0DA05F091DB05238121FF1BC08C01D0E019
S11307C0C0E0F80181918F016091DA057091DB0539
S11307D0DB011896ED91FC911997882331F0199556
S11307E0892B79F3DFEFCFEFECCF8AE01995892BD2
S11307F019F08FEF9FEF02C08D2F9C2FDF91CF91C7
S11308001F910F9108952F923F924F925F926F9292
S11308107F928F929F92AF92BF92CF92DF92EF928C
S1130820FF920F931F93CF93DF93CDB7DEB72C972F
S11308300FB6F894DEBF0FBECDBF7C016B018A01F9
S1130840FC0117821682838181FFB0C1CE0101961B
S11308504C01F7019381F60193FD859193FF8191FA
S11308606F01882309F49EC1853239F493FD859183
S113087093FF81916F01853221F4B70190E0C7D1D4
S1130880E8CF512C312C20E02032A0F48B3269F0D7
S113089030F4803259F0833269F420612CC08D32F7
S11308A039F0803339F4216026C02260246023C0EB
S11308B0286021C027FD27C030ED380F3A3078F486
S11308C026FF06C0FAE05F9E300D1124532E13C09C
S11308D08AE0389E300D1124332E20620CC08E32F3
S11308E021F426FD5FC1206406C08C3611F4206813
S11308F002C0883641F4F60193FD859193FF8191FE
S11309006F018111C1CF982F9F7D9554933028F4A6
S11309100C5F1F4FFFE3F9830DC0833631F083373B
S113092071F0833509F057C021C0F80180818983B3
S11309300E5F1F4F44244394512C540114C03801BA
S1130940F2E06F0E711CF801A080B18026FF03C095
S1130950652D70E002C06FEF7FEFC5012C874CD18D
S11309602C0183012C852F77222E16C03801F2E04A
S11309706F0E711CF801A080B18026FF03C0652DA5
S113098070E002C06FEF7FEFC5012C872AD12C01E4
S11309902C852068222E830123FC19C0832D90E02E
S11309A048165906A0F4B70180E290E030D13A9499
S11309B0F5CFF50127FC859127FE81915F01B701F1
S11309C090E025D131103A94F1E04F1A51084114C6
S11309D0510479F7DEC0843611F0893631F5F80117
S11309E027FF07C060817181828193810C5F1F4F53
S11309F008C060817181072E000C880B990B0E5F73
S1130A001F4F2F76722E97FF09C090958095709591
S1130A1061957F4F8F4F9F4F2068722E2AE030E000
S1130A20A4012DD1A82EA81843C0853729F42F7E00
S1130A30B22E2AE030E025C0F22FF97FBF2E8F3688
S1130A40C1F018F4883579F0ADC0803719F08837D3
S1130A5021F0A8C02F2F2061B22EB4FE0DC08B2D23
S1130A608460B82E09C024FF0AC09F2F9660B92E57
S1130A7006C028E030E005C020E130E002C020E1FB
S1130A8032E0F801B7FE07C06081718182819381F1
S1130A900C5F1F4F06C06081718180E090E00E5FA3
S1130AA01F4FA401ECD0A82EA818FB2DFF777F2E92
S1130AB076FE0BC0372D3E7FA51450F474FE0AC099
S1130AC072FC08C0372D3E7E05C0BA2C372D03C0FA
S1130AD0BA2C01C0B52C34FF0DC0FE01EA0DF11D86
S1130AE08081803311F4397E09C032FF06C0B3948B
S1130AF0B39404C0832F867809F0B39433FD12C0F5
S1130B0030FF06C05A2CB31418F4530C5B18B32CE2
S1130B10B31460F4B70180E290E03C8778D0B394DA
S1130B203C85F6CFB31410F43B1801C0312C34FFCC
S1130B3011C0B70180E390E03C8769D03C8532FF67
S1130B4016C031FD03C088E790E002C088E590E05C
S1130B50B7010CC0832F867851F031FF02C08BE2BD
S1130B6001C080E237FD8DE2B70190E050D0A514BA
S1130B7030F4B70180E390E04AD05A94F8CFAA94B5
S1130B80F401EA0DF11D8081B70190E040D0A1107D
S1130B90F6CF332009F45DCEB70180E290E037D080
S1130BA03A94F7CFF7018681978102C08FEF9FEFC8
S1130BB02C960FB6F894DEBF0FBECDBFDF91CF9158
S1130BC01F910F91FF90EF90DF90CF90BF90AF9067
S1130BD09F908F907F906F905F904F903F902F9059
S1130BE00895FC010590615070400110D8F780957C
S1130BF090958E0F9F1F0895FC01615070400190E5
S1130C000110D8F7809590958E0F9F1F08950F932C
S1130C101F93CF93DF93FB01238121FD03C08FEF4B
S1130C209FEF28C022FF16C0468157812481358159
S1130C304217530744F4A081B1819D012F5F3F4FB8
S1130C40318320838C93268137812F5F3F4F3783F5
S1130C50268310C0EB01092F182F0084F185E02DA5
S1130C601995892BE1F68E819F8101969F838E834E
S1130C70812F902FDF91CF911F910F910895FA0149
S1130C80AA27283051F1203181F1E8946F936E7FC7
S1130C906E5F7F4F8F4F9F4FAF4FB1E03ED0B4E0B8
S1130CA03CD0670F781F891F9A1FA11D680F791FF9
S1130CB08A1F911DA11D6A0F711D811D911DA11D0A
S1130CC020D009F468943F912AE0269F112430191A
S1130CD0305D3193DEF6CF010895462F4770405DB5
S1130CE04193B3E00FD0C9F7F6CF462F4F70405D64
S1130CF04A3318F0495D31FD4052419302D0A9F7BF
S1130D00EACFB4E0A6959795879577956795BA95B8
S1130D10C9F700976105710508959B01AC010A2E7E
S1130D2006945795479537952795BA95C9F7620F55
S1110D30731F841F951FA01D0895F894FFCF14
S1130D3E0000000100000000000078030000000025
S1130D4E000200000000670300000000646174618B
S1130D5E6C656E6774683A2025690A002569202D32
S1130D6E3E202569200A000A0A0A0A5354415254A5
S1130D7E20434F4445205749544820544849532052
S1130D8E494E5055543A2025730A0A00426175643F
S1130D9E74696D653A2025690A0054696D65206E83
S1130DAE656564656420746F2073656E643A2025EE
S1130DBE69206D730A000A5265636569766564205D
S1130DCE646174613A2025730A0A00456E74657273
S1130DDE696E67206C6F6F70206E6F772E2E2E2EBD
S1050DEE0000FF
S9030000FC
