S0190000555741435F41726475696E6F5F3466736B2E73726563D3
S11300000C9434000C9451000C9451000C94510045
S11300100C9451000C9451000C9451000C94510018
S11300200C9451000C9451000C9451000C94510008
S11300300C9451000C9451000C9451000C945100F8
S11300400C9451000C9451000C9451000C945100E8
S11300500C9451000C9451000C9451000C945100D8
S11300600C9451000C94510011241FBECFEFD8E022
S1130070DEBFCDBF12E0A0E0B1E0EAE1FEE002C0E5
S113008005900D92A037B107D9F722E0A0E7B2E0BE
S113009001C01D92AA37B207E1F70E9449030C94EC
S11300A00B070C9400002F923F924F925F926F9235
S11300B07F928F929F92AF92BF92CF92DF92EF92F4
S11300C0FF920F931F93CF93DF93CDB7DEB7609763
S11300D00FB6F894DEBF0FBECDBF3C018B012A01E1
S11300E0F22E1F936F9384EB91E09F938F930E9462
S11300F009040F900F900F900F90101611060CF03A
S1130100CAC04301600E711E212C312C00E811E09D
S11301105401D4018D914D011F928F931F930F931E
S11301200E940904322C2224F5018081282A0F9090
S11301300F900F900F908614970451F73F922F92CF
S11301408BE891E09F938F930E9409040F900F9086
S11301500F900F90F11002C0322C2224920140E043
S113016050E060E070E0CB0149863A874B875C87BA
S11301706D877E878F87988B3FEF2316310408F4B1
S11301809BC0A10160E070E080E090E0DC01298286
S11301905A836B837C838D839E83AF83B887298541
S11301A03A854B855C856D857E858F859889A98088
S11301B0BA80C12CD12CE12CF12C00E010E00E947B
S11301C00004C8F5822E932E442E752E662E572ECB
S11301D0F82FE92F282D392D442D572D662D752DF7
S11301E08F2F9E2F01E00E94C903822E932E442E4E
S11301F0752E662E572EF82FE92FA980BA80CB8052
S1130200DC80ED80FE800F8118850E94000410F3CD
S1130210572D8F2F9E2F282D392D662D752D01E0FA
S11302200E94E403422E532E642E752E862E972EA2
S1130230A82EB92E08C049845A846B847C848D848A
S11302409E84AF84B888BF92AF929F928F927F9220
S11302506F925F924F923F922F92A9E9B1E0BF93C0
S1130260AF930E940904242435243F922F92ACEBCF
S1130270B1E0BF93AF930E9409040FB6F894DEBFB8
S11302800FBECDBF3FEF2316310408F07ACF14C060
S1130290212C312C11C01F921F928BE891E09F9367
S11302A08F930E9409040F900F900F900F90F110FC
S11302B0EFCF212C312C50CFC10160960FB6F894AA
S11302C0DEBF0FBECDBFDF91CF911F910F91FF9085
S11302D0EF90DF90CF90BF90AF909F908F907F90E2
S11302E06F905F904F903F902F9008953F924F9260
S11302F05F926F927F928F929F92AF92BF92CF92B2
S1130300DF92EF92FF920F931F93CF93DF93CDB7BA
S1130310DEB7C45FD1400FB6F894DEBF0FBECDBFC9
S11303208C0110927102109270022C019E012F56C2
S11303303E4FDC0180E090E005C04D91F90141930E
S11303409F010196F80101900020E9F73197BF0160
S1130350601B710B8617970780F320E047E651E096
S1130360CE018F569E4F0E9453003C017F928F9383
S113037080EA91E09F938F930E940904CE01019635
S11303807C010F900F900F900F90812C912C0F2EC9
S1130390FFECCF2EF1E0DF2EF02D30C0F2013190D2
S11303A02F015701F4E0AF0EB11C832D8295869581
S11303B086958370F70181937F01330C330C209170
S11303C07002309171022F5F3F4F3093710220937E
S11303D070021F928F93DF92CF920E9409040F90B4
S11303E00F900F900F90EA14FB04F9F680E290E06E
S11303F00E941F04FFEF8F1A9F0A7501F8010190F4
S11304000020E9F73197E01BF10B8E169F0630F2BE
S11304102091700230917102E1E0F0E0EC0FFD1FD9
S1130420E20FF31FA9014C5F5F4F81E090E08C0F56
S11304309D1F480F591FC301807C9927082E892FBF
S1130440000C881F990B000C881F991F660C771CE1
S1130450660C771C8193E417F50769F7C9010496C4
S113046090937102809370029F938F938FEA91E02F
S11304709F938F930E9409040F900F900F900F90F9
S1130480CE010196CC50DE4F0FB6F894DEBF0FBEFE
S1130490CDBFDF91CF911F910F91FF90EF90DF902F
S11304A0CF90BF90AF909F908F907F906F905F9010
S11304B04F903F9008952F923F924F925F926F9288
S11304C07F928F929F92AF92BF92CF92DF92EF92E0
S11304D0FF920F931F93CF93DF93CDB7DEB7C85C22
S11304E0D1090FB6F894DEBF0FBECDBFE82EF92EAA
S11304F0062F172F19821A821B821C82FE01359641
S113050080E6DF011D928A95E9F77F936F9320ECD3
S113051031E03F932F930E9409046E2C7F2C802E90
S1130520912E0F900F900F900F90312CA12CB12C85
S113053000E010E00F2EFCECCF2EF1E0DF2EF02DCA
S11305400F2EF2EDEF2EF1E0FF2EF02D0F2EF1EE37
S11305504F2EF1E05F2EF02D212C3AC01F930F9304
S1130560DF92CF920E940904F30181913F018370CD
S1130570330C330C382A1F923F921F928F93FF92B1
S1130580EF920E9409040F5F1F4FC80183709927DF
S11305900FB6F894DEBF0FBECDBF892BC9F4BF924E
S11305A0AF921F923F925F924F920E940904E1E042
S11305B0F0E0EC0FFD1FEA0DFB1D30823FEFA31AA4
S11305C0B30A0F900F900F900F900F900F90322C52
S11305D00815190519F6AE014F5F5F4F9E012B599F
S11305E03F4F80E090E0DA0107C0FA016191AF016A
S11305F0F90161939F010196FD0101900020E9F743
S11306003197BF016A1B7B0B8617970770F321E0B4
S113061047E651E0CE018B599F4F0E9453008C0155
S1130620FE01EA0DFB1D10821F938F9384EF91E06E
S11306309F938F930E9409040F900F900F900F9037
S1130640012B29F485E092E00E94260406C08FEF76
S1130650898380E192E00E942604CE010196C8536A
S1130660DF4F0FB6F894DEBF0FBECDBFDF91CF9141
S11306701F910F91FF90EF90DF90CF90BF90AF90BC
S11306809F908F907F906F905F904F903F902F90AE
S11306900895CF93DF93CDB7DEB7C456D1090FB613
S11306A0F894DEBF0FBECDBF0E949C03E4E7F2E0E6
S11306B08EE091E09383828380E091E09183808354
S11306C00E9498038AE4ECE1F1E08E010F5F1F4F72
S11306D0D80101900D928A95E1F7FE01E55BFF4F89
S11306E08AE1DF011D928A95E9F71F930F9380E257
S11306F092E09F938F930E940904C8010E9476019F
S113070060917002709171020E945B029F938F93BB
S113071085E492E09F938F930E9409048AE592E016
S11307200E9426040FB6F894DEBF0FBECDBFFFCFE4
S113073088E48093B80008951092730210927202B4
S11307401092C5001092C400E1ECF0E08081886151
S11307508083E2ECF0E08081866080830895CF930B
S1130760C82F8A3019F48DE00E94AF03E0ECF0E06A
S1130770908195FFFDCFC093C60080E090E0CF91BB
S11307800895E0ECF0E080818823ECF78091C600C6
S113079008950F93083090F0982F872F762F652FA8
S11307A0542F432F322F22270850F4CF220F331F08
S11307B0441F551F661F771F881F991F0A95B2F79C
S11307C00F91089597FB10F8169400080F930830C2
S11307D098F00850232F342F452F562F672F782F4A
S11307E0892F902DF4CF05949795879577956795E4
S11307F057954795379527950A95AAF70F91089528
S11308002A153B054C055D056E057F05800791079C
S11308100895A0E0B0E0EFE0F4E00C94E406AE014B
S11308204B5F5F4FFA0161917191AF018091760244
S1130830909177020E945604E2E00C9400076091C4
S11308407602709177020E943E0608950F931F93DB
S1130850CF93DF93E0917602F0917702238121FF19
S11308601BC08C01D0E0C0E0F80181918F01609140
S1130870760270917702DB011896ED91FC9119973D
S1130880882331F00995892B79F3DFEFCFEFECCF93
S11308908AE00995892B19F08FEF9FEF02C08D2F05
S11308A09C2FDF91CF911F910F910895ACE0B0E0A0
S11308B0ECE5F4E00C94D4067C016B018A01FC01A4
S11308C017821682838181FFBDC1CE0101964C013E
S11308D0F7019381F60193FD859193FF81916F0157
S11308E0882309F4ABC1853239F493FD859193FFD4
S11308F081916F01853229F4B70190E00E943E0690
S1130900E7CF512C312C20E02032A0F48B3269F057
S113091030F4803259F0833269F420612CC08D3276
S113092039F0803339F4216026C02260246023C06A
S1130930286021C027FD27C030ED380F3A3078F405
S113094026FF06C0FAE05F9E300D1124532E13C01B
S11309508AE0389E300D1124332E20620CC08E3272
S113096021F426FD6BC1206406C08C3611F4206886
S113097002C0883641F4F60193FD859193FF81917D
S11309806F018111C1CF982F9F7D9554933028F426
S11309900C5F1F4FFFE3F9830DC0833631F08337BB
S11309A071F0833509F05BC022C0F801808189832E
S11309B00E5F1F4F44244394512C540115C0380139
S11309C0F2E06F0E711CF801A080B18026FF03C015
S11309D0652D70E002C06FEF7FEFC5012C870E9488
S11309E033062C0183012C852F77222E17C0380162
S11309F0F2E06F0E711CF801A080B18026FF03C0E5
S1130A00652D70E002C06FEF7FEFC5012C870E9457
S1130A1028062C012C852068222E830123FC1BC070
S1130A20832D90E048165906B0F4B70180E290E0B7
S1130A300E943E063A94F4CFF50127FC859127FEE7
S1130A4081915F01B70190E00E943E0631103A9413
S1130A50F1E04F1A51084114510471F7E5C084368E
S1130A6011F0893639F5F80127FF07C060817181DB
S1130A70828193810C5F1F4F08C060817181072EB2
S1130A80000C880B990B0E5F1F4F2F76722E97FF69
S1130A9009C090958095709561957F4F8F4F9F4FBA
S1130AA02068722E2AE030E0A4010E947606A82E67
S1130AB0A81844C0853729F42F7EB22E2AE030E0EE
S1130AC025C0F22FF97FBF2E8F36C1F018F4883578
S1130AD079F0B4C0803719F0883721F0AFC02F2FD8
S1130AE02061B22EB4FE0DC08B2D8460B82E09C0D7
S1130AF024FF0AC09F2F9660B92E06C028E030E07C
S1130B0005C020E130E002C020E132E0F801B7FE88
S1130B1007C060817181828193810C5F1F4F06C081
S1130B206081718180E090E00E5F1F4FA4010E94FC
S1130B307606A82EA818FB2DFF777F2E76FE0BC015
S1130B40372D3E7FA51450F474FE0AC072FC08C011
S1130B50372D3E7E05C0BA2C372D03C0BA2C01C0F8
S1130B60B52C34FF0DC0FE01EA0DF11D80818033E8
S1130B7011F4397E09C032FF06C0B394B39404C0A3
S1130B80832F867809F0B39433FD13C030FF06C079
S1130B905A2CB31418F4530C5B18B32CB31468F424
S1130BA0B70180E290E03C870E943E06B3943C8506
S1130BB0F5CFB31410F43B1801C0312C34FF12C02C
S1130BC0B70180E390E03C870E943E063C8532FFFB
S1130BD017C031FD03C088E790E002C088E590E0CB
S1130BE0B7010CC0832F867859F031FF02C08BE225
S1130BF001C080E237FD8DE2B70190E00E943E061D
S1130C00A51438F4B70180E390E00E943E065A949C
S1130C10F7CFAA94F401EA0DF11D8081B70190E0A9
S1130C200E943E06A110F5CF332009F451CEB7013E
S1130C3080E290E00E943E063A94F6CFF701868166
S1130C40978102C08FEF9FEF2C96E2E10C94F0069F
S1130C50FC010590615070400110D8F78095909583
S1130C608E0F9F1F0895FC01615070400190011088
S1130C70D8F7809590958E0F9F1F08950F931F931B
S1130C80CF93DF93FB01238121FD03C08FEF9FEFFF
S1130C9028C022FF16C0468157812481358142171E
S1130CA0530744F4A081B1819D012F5F3F4F3183ED
S1130CB020838C93268137812F5F3F4F3783268390
S1130CC010C0EB01092F182F0084F185E02D099540
S1130CD0892BE1F68E819F8101969F838E83812FDC
S1130CE0902FDF91CF911F910F910895FA01AA27B8
S1130CF0283051F1203181F1E8946F936E7F6E5F5B
S1130D007F4F8F4F9F4FAF4FB1E03ED0B4E03CD008
S1130D10670F781F891F9A1FA11D680F791F8A1FEB
S1130D20911DA11D6A0F711D811D911DA11D20D052
S1130D3009F468943F912AE0269F11243019305D0C
S1130D403193DEF6CF010895462F4770405D4193FD
S1130D50B3E00FD0C9F7F6CF462F4F70405D4A334A
S1130D6018F0495D31FD4052419302D0A9F7EACF12
S1130D70B4E0A6959795879577956795BA95C9F741
S1130D8000976105710508959B01AC010A2E069434
S1130D905795479537952795BA95C9F7620F731FED
S1130DA0841F951FA01D08952F923F924F925F922A
S1130DB06F927F928F929F92AF92BF92CF92DF9267
S1130DC0EF92FF920F931F93CF93DF93CDB7DEB7CC
S1130DD0CA1BDB0B0FB6F894DEBF0FBECDBF099460
S1130DE02A88398848885F846E847D848C849B84B7
S1130DF0AA84B984C884DF80EE80FD800C811B81C5
S1130E00AA81B981CE0FD11D0FB6F894DEBF0FBEF3
S10D0E10CDBFED010895F894FFCF63
S1130E1A00000001000000000000C10300000000FF
S1130E2A000200000000AF03000000004E6F772CA0
S1130E3A207468697320697320612073746F7279EE
S1130E4A20616C6C2061626F757420686F77204D25
S1130E5A79206C69666520676F7420666C697070A6
S1130E6A65642D7475726E65642075707369646542
S1130E7A20646F776E00000000000000000000008C
S1130E8A0000000000000000000000000000000054
S1130E9A446174613A2025692C20000A616C6C440F
S1130EAA6174613A2025750A0025695E25693D0049
S1130EBA0A436865636B73756D3A2025690A000AEB
S1130ECA646174614C656E6774683A2025690A0026
S1130EDA6C656E6774683A2025690A000A693A25BE
S1130EEA69002062697473256920746D7025692C00
S1130EFA000A636861722025630A546F74616C2066
S1130F0A25690A000A0A436865636B73756D3A209A
S1130F1A25690A0A004E6F206572726F72732E0079
S1130F2A4572726F722064657465637465642E0019
S1130F3A0A0A0A0A535441525420434F444520573B
S1130F4A495448205448495320494E5055543A204C
S1130F5A25730A0A000A5265636569766564206422
S1130F6A6174613A2025730A0A00456E74657269D0
S1130F7A6E67206C6F6F70206E6F772E2E2E2E0088
S9030000FC
