S0140000555741435F41726475696E6F2E73726563AF
S11300000C9434000C9451000C9451000C94510045
S11300100C9451000C9451000C9451000C94510018
S11300200C9451000C9451000C9451000C94510008
S11300300C9451000C9451000C9451000C945100F8
S11300400C9451000C9451000C9451000C945100E8
S11300500C9451000C9451000C9451000C945100D8
S11300600C9451000C94510011241FBECFEFD8E022
S1130070DEBFCDBF12E0A0E0B1E0ECE0FEE002C0E4
S113008005900D92A434B107D9F722E0A4E4B2E0BC
S113009001C01D92AE34B207E1F70E9449030C94EB
S11300A004070C9400002F923F924F925F926F923C
S11300B07F928F929F92AF92BF92CF92DF92EF92F4
S11300C0FF920F931F93CF93DF93CDB7DEB7609763
S11300D00FB6F894DEBF0FBECDBF3C018B012A01E1
S11300E0F22E1F936F9387E891E09F938F930E9462
S11300F002040F900F900F900F90101611060CF041
S1130100CAC04301600E711E212C312C03E511E09D
S11301105401D4018D914D011F928F931F930F931E
S11301200E940204322C2224F5018081282A0F9097
S11301300F900F900F908614970451F73F922F92CF
S11301408EE591E09F938F930E9402040F900F908D
S11301500F900F90F11002C0322C2224920140E043
S113016050E060E070E0CB0149863A874B875C87BA
S11301706D877E878F87988B3FEF2316310408F4B1
S11301809BC0A10160E070E080E090E0DC01298286
S11301905A836B837C838D839E83AF83B887298541
S11301A03A854B855C856D857E858F859889A98088
S11301B0BA80C12CD12CE12CF12C00E010E00E947B
S11301C0F903C8F5822E932E442E752E662E572ED3
S11301D0F82FE92F282D392D442D572D662D752DF7
S11301E08F2F9E2F01E00E94C203822E932E442E55
S11301F0752E662E572EF82FE92FA980BA80CB8052
S1130200DC80ED80FE800F8118850E94F90310F3D5
S1130210572D8F2F9E2F282D392D662D752D01E0FA
S11302200E94DD03422E532E642E752E862E972EA9
S1130230A82EB92E08C049845A846B847C848D848A
S11302409E84AF84B888BF92AF929F928F927F9220
S11302506F925F924F923F922F92ACE6B1E0BF93C0
S1130260AF930E940204242435243F922F92AFE8D6
S1130270B1E0BF93AF930E9402040FB6F894DEBFBF
S11302800FBECDBF3FEF2316310408F07ACF14C060
S1130290212C312C11C01F921F928EE591E09F9367
S11302A08F930E9402040F900F900F900F90F11003
S11302B0EFCF212C312C50CFC10160960FB6F894AA
S11302C0DEBF0FBECDBFDF91CF911F910F91FF9085
S11302D0EF90DF90CF90BF90AF909F908F907F90E2
S11302E06F905F904F903F902F9008953F924F9260
S11302F05F926F927F928F929F92AF92BF92CF92B2
S1130300DF92EF92FF920F931F93CF93DF93CDB7BA
S1130310DEB7C45FD1400FB6F894DEBF0FBECDBFC9
S11303208C0110924502109244022C019E012F561A
S11303303E4FDC0180E090E005C04D91F90141930E
S11303409F010196F80101900020E9F73197BF0160
S1130350601B710B8617970780F320E047E651E096
S1130360CE018F569E4F0E9453003C017F928F9383
S113037083E791E09F938F930E940204CE0101963C
S11303807C010F900F900F900F90812C912C0F2EC9
S1130390F2EACF2EF1E0DF2EF02D30C0F2013190E1
S11303A02F015701F4E0AF0EB11C832D8295869581
S11303B086958370F70181937F01330C330C209170
S11303C04402309145022F5F3F4F30934502209302
S11303D044021F928F93DF92CF920E9402040F90E7
S11303E00F900F900F90EA14FB04F9F680E290E06E
S11303F00E941804FFEF8F1A9F0A7501F8010190FB
S11304000020E9F73197E01BF10B8E169F0630F2BE
S11304102091440230914502E1E0F0E0EC0FFD1F31
S1130420E20FF31FA9014C5F5F4F81E090E08C0F56
S11304309D1F480F591FC301807C9927082E892FBF
S1130440000C881F990B000C881F991F660C771CE1
S1130450660C771C8193E417F50769F7C9010496C4
S113046090934502809344029F938F9382E891E096
S11304709F938F930E9402040F900F900F900F9000
S1130480CE010196CC50DE4F0FB6F894DEBF0FBEFE
S1130490CDBFDF91CF911F910F91FF90EF90DF902F
S11304A0CF90BF90AF909F908F907F906F905F9010
S11304B04F903F9008952F923F924F925F926F9288
S11304C07F928F929F92AF92BF92CF92DF92EF92E0
S11304D0FF920F931F93CF93DF93CDB7DEB7C85C22
S11304E0D1090FB6F894DEBF0FBECDBFE82EF92EAA
S11304F0062F172F19821A821B821C82FE01359641
S113050080E6DF011D928A95E9F77F936F9323E9D3
S113051031E03F932F930E9402046E2C7F2C802E97
S1130520912E0F900F900F900F90312CA12CB12C85
S113053000E010E00F2EFFE9CF2EF1E0DF2EF02DCA
S11305400F2EF5EAEF2EF1E0FF2EF02D0F2EF4EB37
S11305504F2EF1E05F2EF02D212C3AC01F930F9304
S1130560DF92CF920E940204F30181913F018370D4
S1130570330C330C382A1F923F921F928F93FF92B1
S1130580EF920E9402040F5F1F4FC80183709927E6
S11305900FB6F894DEBF0FBECDBF892BC9F4BF924E
S11305A0AF921F923F925F924F920E940204E1E049
S11305B0F0E0EC0FFD1FEA0DFB1D30823FEFA31AA4
S11305C0B30A0F900F900F900F900F900F90322C52
S11305D00815190519F6AE014F5F5F4F9E012B599F
S11305E03F4F80E090E0DA0107C0FA016191AF016A
S11305F0F90161939F010196FD0101900020E9F743
S11306003197BF016A1B7B0B8617970770F321E0B4
S113061047E651E0CE018B599F4F0E9453008C0155
S1130620FE01EA0DFB1D10821F938F9387EC91E06E
S11306309F938F930E9402040F900F900F900F903E
S1130640012B29F488ED91E00E941F0406C08FEF6E
S1130650898383EE91E00E941F04CE010196C85362
S1130660DF4F0FB6F894DEBF0FBECDBFDF91CF9141
S11306701F910F91FF90EF90DF90CF90BF90AF90BC
S11306809F908F907F906F905F904F903F902F90AE
S11306900895CF93DF93CDB7DEB7E7970FB6F894FD
S11306A0DEBF0FBECDBF0E949503E8E4F2E08EE00A
S11306B091E09383828380E091E0918380830E9420
S11306C0910385E3ECE1F1E08E010F5F1F4FD80148
S11306D001900D928A95E1F71FAA1EAA1F930F930A
S11306E083EF91E09F938F930E940204C8010E94BC
S11306F0760160914402709145020E945B029F93CF
S11307008F9388E192E09F938F930E9402048DE27D
S113071092E00E941F040FB6F894DEBF0FBECDBF57
S1130720FFCF88E48093B800089510924702109296
S113073046021092C5001092C400E1ECF0E0808102
S113074088618083E2ECF0E0808186608083089594
S1130750CF93C82F8A3019F48DE00E94A803E0ECEF
S1130760F0E0908195FFFDCFC093C60080E090E05B
S1130770CF910895E0ECF0E080818823ECF780913C
S1130780C60008950F93083090F0982F872F762F86
S1130790652F542F432F322F22270850F4CF220FD6
S11307A0331F441F551F661F771F881F991F0A9503
S11307B0B2F70F91089597FB10F8169400080F9361
S11307C0083098F00850232F342F452F562F672FC9
S11307D0782F892F902DF4CF059497958795779549
S11307E0679557954795379527950A95AAF70F91D9
S11307F008952A153B054C055D056E057F058007A8
S113080091070895A0E0B0E0E8E0F4E00C94DD0680
S1130810AE014B5F5F4FFA0161917191AF0180911D
S11308204A0290914B020E944F04E2E00C94F906B4
S113083060914A0270914B020E94370608950F930B
S11308401F93CF93DF93E0914A02F0914B022381EF
S113085021FF1BC08C01D0E0C0E0F80181918F0121
S113086060914A0270914B02DB011896ED91FC9164
S11308701997882331F00995892B79F3DFEFCFEFAE
S1130880ECCF8AE00995892B19F08FEF9FEF02C016
S11308908D2F9C2FDF91CF911F910F910895ACE084
S11308A0B0E0E5E5F4E00C94CD067C016B018A012F
S11308B0FC0117821682838181FFBDC1CE0101969E
S11308C04C01F7019381F60193FD859193FF81918A
S11308D06F01882309F4ABC1853239F493FD859106
S11308E093FF81916F01853229F4B70190E00E9452
S11308F03706E7CF512C312C20E02032A0F48B3284
S113090069F030F4803259F0833269F420612CC0EC
S11309108D3239F0803339F4216026C0226024609E
S113092023C0286021C027FD27C030ED380F3A309E
S113093078F426FF06C0FAE05F9E300D1124532E92
S113094013C08AE0389E300D1124332E20620CC06F
S11309508E3221F426FD6BC1206406C08C3611F45E
S1130960206802C0883641F4F60193FD859193FF17
S113097081916F018111C1CF982F9F7D9554933040
S113098028F40C5F1F4FFFE3F9830DC0833631F069
S1130990833771F0833509F05BC022C0F801808190
S11309A089830E5F1F4F44244394512C540115C076
S11309B03801F2E06F0E711CF801A080B18026FFAF
S11309C003C0652D70E002C06FEF7FEFC5012C8777
S11309D00E942C062C0183012C852F77222E17C010
S11309E03801F2E06F0E711CF801A080B18026FF7F
S11309F003C0652D70E002C06FEF7FEFC5012C8747
S1130A000E9421062C012C852068222E830123FCC0
S1130A101BC0832D90E048165906B0F4B70180E25C
S1130A2090E00E9437063A94F4CFF50127FC8591B3
S1130A3027FE81915F01B70190E00E9437063110D3
S1130A403A94F1E04F1A51084114510471F7E5C08A
S1130A50843611F0893639F5F80127FF07C0608123
S1130A607181828193810C5F1F4F08C06081718105
S1130A70072E000C880B990B0E5F1F4F2F76722EDA
S1130A8097FF09C090958095709561957F4F8F4F22
S1130A909F4F2068722E2AE030E0A4010E946F0666
S1130AA0A82EA81844C0853729F42F7EB22E2AE038
S1130AB030E025C0F22FF97FBF2E8F36C1F018F435
S1130AC0883579F0B4C0803719F0883721F0AFC089
S1130AD02F2F2061B22EB4FE0DC08B2D8460B82E52
S1130AE009C024FF0AC09F2F9660B92E06C028E0D3
S1130AF030E005C020E130E002C020E132E0F8013E
S1130B00B7FE07C060817181828193810C5F1F4FA2
S1130B1006C06081718180E090E00E5F1F4FA401E8
S1130B200E946F06A82EA818FB2DFF777F2E76FE55
S1130B300BC0372D3E7FA51450F474FE0AC072FC1E
S1130B4008C0372D3E7E05C0BA2C372D03C0BA2C01
S1130B5001C0B52C34FF0DC0FE01EA0DF11D8081EA
S1130B60803311F4397E09C032FF06C0B394B394C4
S1130B7004C0832F867809F0B39433FD13C030FF8B
S1130B8006C05A2CB31418F4530C5B18B32CB314CA
S1130B9068F4B70180E290E03C870E943706B39482
S1130BA03C85F5CFB31410F43B1801C0312C34FF4D
S1130BB012C0B70180E390E03C870E9437063C8571
S1130BC032FF17C031FD03C088E790E002C088E51A
S1130BD090E0B7010CC0832F867859F031FF02C032
S1130BE08BE201C080E237FD8DE2B70190E00E9404
S1130BF03706A51438F4B70180E390E00E94370665
S1130C005A94F7CFAA94F401EA0DF11D8081B7013B
S1130C1090E00E943706A110F5CF332009F451CE9D
S1130C20B70180E290E00E9437063A94F6CFF701CC
S1130C308681978102C08FEF9FEF2C96E2E10C949E
S1130C40E906FC010590615070400110D8F78095C9
S1130C5090958E0F9F1F0895FC0161507040019084
S1130C600110D8F7809590958E0F9F1F08950F93CC
S1130C701F93CF93DF93FB01238121FD03C08FEFEB
S1130C809FEF28C022FF16C04681578124813581F9
S1130C904217530744F4A081B1819D012F5F3F4F58
S1130CA0318320838C93268137812F5F3F4F378395
S1130CB0268310C0EB01092F182F0084F185E02D45
S1130CC00995892BE1F68E819F8101969F838E83FE
S1130CD0812F902FDF91CF911F910F910895FA01E9
S1130CE0AA27283051F1203181F1E8946F936E7F67
S1130CF06E5F7F4F8F4F9F4FAF4FB1E03ED0B4E058
S1130D003CD0670F781F891F9A1FA11D680F791F98
S1130D108A1F911DA11D6A0F711D811D911DA11DA9
S1130D2020D009F468943F912AE0269F11243019B9
S1130D30305D3193DEF6CF010895462F4770405D54
S1130D404193B3E00FD0C9F7F6CF462F4F70405D03
S1130D504A3318F0495D31FD4052419302D0A9F75E
S1130D60EACFB4E0A6959795879577956795BA9558
S1130D70C9F700976105710508959B01AC010A2E1E
S1130D8006945795479537952795BA95C9F7620FF5
S1130D90731F841F951FA01D08952F923F924F9299
S1130DA05F926F927F928F929F92AF92BF92CF92F7
S1130DB0DF92EF92FF920F931F93CF93DF93CDB700
S1130DC0DEB7CA1BDB0B0FB6F894DEBF0FBECDBF78
S1130DD009942A88398848885F846E847D848C8449
S1130DE09B84AA84B984C884DF80EE80FD800C8152
S1130DF01B81AA81B981CE0FD11D0FB6F894DEBF35
S10F0E000FBECDBFED010895F894FFCFA4
S1130E0C00000001000000000000BA030000000014
S1130E1C000200000000A80300000000616263648B
S1130E2C65666768696A6B6C6D6E6F7071727374EA
S1130E3C75767778797A4142434445464748494A1E
S1130E4C4B4C4D4E4F505152535455565758595A6A
S1130E5C000000446174613A2025692C20000A6169
S1130E6C6C6C446174613A2025750A0025695E2511
S1130E7C693D000A436865636B73756D3A20256997
S1130E8C0A000A646174614C656E6774683A2025C3
S1130E9C690A006C656E6774683A2025690A000A51
S1130EAC693A2569002062697473256920746D7030
S1130EBC25692C000A636861722025630A546F74D7
S1130ECC616C2025690A000A0A436865636B7375B3
S1130EDC6D3A2025690A0A004E6F206572726F7292
S1130EEC732E004572726F72206465746563746549
S1130EFC642E000A0A0A0A535441525420434F44A4
S1130F0C452057495448205448495320494E50557C
S1130F1C543A2025730A0A000A526563656976659A
S1130F2C6420646174613A2025730A0A00456E7466
S1130F3C6572696E67206C6F6F70206E6F772E2EE2
S1070F4C2E2E000041
S9030000FC
