S0140000555741435F41726475696E6F2E73726563AF
S11300000C9434000C9451000C9451000C94510045
S11300100C9451000C9451000C9451000C94510018
S11300200C9451000C9451000C9451000C94510008
S11300300C9451000C9451000C9451000C945100F8
S11300400C9451000C9451000C9451000C945100E8
S11300500C9451000C9451000C9451000C945100D8
S11300600C9451000C94510011241FBECFEFD8E022
S1130070DEBFCDBF11E0A0E0B1E0EAE7F1E002C0ED
S113008005900D92A432B107D9F721E0A4E2B1E0C2
S113009001C01D92AA32B207E1F70E9453000C94EA
S11300A0BB000C9400000E94690080E091E09093F2
S11300B02701809326018EE091E00E948B002FEFB0
S11300C083ED90E3215080409040E1F700C00000B0
S11300D0F2CF1092C50087E68093C400E2ECF0E012
S11300E0808186608083E1ECF0E080818860808399
S11300F00895CF93C82F8A3019F48DE00E947900B7
S1130100E0ECF0E0908195FFFDCFC093C60080E065
S113011090E0CF9108950F931F93CF93DF93E091D5
S11301202601F0912701238121FF1BC08C01D0E01F
S1130130C0E0F80181918F0160912601709127013F
S1130140DB011896ED91FC911997882331F00995FC
S1130150892B79F3DFEFCFEFECCF8AE00995892B78
S113016019F08FEF9FEF02C08D2F9C2FDF91CF915D
S10D01701F910F910895F894FFCF3A
S113017A000000020000000079000000000053653E
S113018A6E64206465627567206461746120746FAB
S107019A20504300AA
S9030000FC
