S0140000555741435F41726475696E6F2E73726563AF
S11300000C9434000C9451000C9451000C94510045
S11300100C9451000C9451000C9451000C94510018
S11300200C9451000C9451000C9451000C94510008
S11300300C9451000C9451000C9451000C945100F8
S11300400C9451000C9451000C9451000C945100E8
S11300500C9451000C9451000C9451000C945100D8
S11300600C9451000C94510011241FBECFEFD8E022
S1130070DEBFCDBF12E0A0E0B1E0EEE0FEE002C0E2
S113008005900D92A234B107D9F722E0A2E4B2E0C0
S113009001C01D92AC34B207E1F70E944D030C94E9
S11300A005070C9400002F923F924F925F926F923B
S11300B07F928F929F92AF92BF92CF92DF92EF92F4
S11300C0FF920F931F93CF93DF93CDB7DEB7609763
S11300D00FB6F894DEBF0FBECDBF3C018B017A0191
S11300E0322E1F936F9384EB91E09F938F930E9422
S11300F003040F900F900F900F90101611060CF040
S1130100D0C06301600E711E412C512C00E811E037
S11301104601D6018D916D011F928F931F930F930A
S11301200E940304542C4424F4018081482A0F9033
S11301300F900F900F90C614D70451F75F924F920F
S11301408BE891E09F938F930E9403040F900F908C
S11301500F900F90311002C0542C4424970140E0BA
S113016050E060E070E0CB01E9823A834B835C832A
S11301706D837E838F8398873FEF431651040CF47D
S1130180A1C05C864B86AB85A987BC85BA87EB2F5B
S1130190EE0FEE0B6E2E5E2E4E2E3E2E2E2E29814F
S11301A03A814B815C816D817E818F819885AA2EF5
S11301B0BB2ECE2EDE2EEE2EFE2E0E2F1E2F0E94D6
S11301C0FA03B8F5722E832E942E588B6D87B72FB1
S11301D0A82F9E87FE2F272D382D492D58896D85F0
S11301E07B2F8A2F9E8501E00E94C303722E832EEB
S11301F0942E588B6D87B72FA82F9E87A984BA8415
S1130200CF2ED62CE52CF42C032D122D0E94FA03AC
S113021010F38A2F272D382D492D01E00E94DE038B
S1130220222E332E442E552E662E772E882E992E6E
S113023008C029803A804B805C806D807E808F80EE
S113024098849F928F927F926F925F924F923F9287
S11302502F92EC85EF93FB85FF93A9E9B1E0BF935F
S1130260AF930E9403042B853C85222633263C86CB
S11302702B863F922F92A5E9B1E0BF93AF930E94E2
S113028003040FB6F894DEBF0FBECDBF4B855C856B
S11302904F3F51050CF077CF2A0114C0412C512C4B
S11302A011C01F921F928BE891E09F938F930E943D
S11302B003040F900F900F900F903110EFCF412C4B
S11302C0512C4ACFC20160960FB6F894DEBF0FBE20
S11302D0CDBFDF91CF911F910F91FF90EF90DF90F1
S11302E0CF90BF90AF909F908F907F906F905F90D2
S11302F04F903F902F9008953F924F925F926F924C
S11303007F928F929F92AF92BF92CF92DF92EF92A1
S1130310FF920F931F93CF93DF93CDB7DEB7C45FE4
S1130320D1400FB6F894DEBF0FBECDBF8C01109242
S11303304302109242022C019E012F563E4FDC01D3
S113034080E090E005C04D91F90141939F01019631
S1130350F80101900020E9F73197BF01601B710B90
S11303608617970780F320E047E651E0CE018F56C9
S11303709E4F0E9453003C017F928F9380EA91E04C
S11303809F938F930E940304CE0101967C010F90EA
S11303900F900F900F90812C912C0F2EFFECCF2EED
S11303A0F1E0DF2EF02D30C0F20131902F01570122
S11303B0F4E0AF0EB11C832D8295869586958370EB
S11303C0F70181937F01330C330C20914202309169
S11303D043022F5F3F4F30934302209342021F9208
S11303E08F93DF92CF920E9403040F900F900F908F
S11303F00F90EA14FB04F9F680E290E00E941904DD
S1130400FFEF8F1A9F0A7501F80101900020E9F7A8
S11304103197E01BF10B8E169F0630F220914202B9
S113042030914302E1E0F0E0EC0FFD1FE20FF31F17
S1130430A9014C5F5F4F81E090E08C0F9D1F480F36
S1130440591FC301807C9927082E892F000C881F0F
S1130450990B000C881F991F660C771C660C771C7F
S11304608193E417F50769F7C90104969093430251
S1130470809342029F938F938FEA91E09F938F938F
S11304800E9403040F900F900F900F90CE010196DD
S1130490CC50DE4F0FB6F894DEBF0FBECDBFDF9158
S11304A0CF911F910F91FF90EF90DF90CF90BF906D
S11304B0AF909F908F907F906F905F904F903F9000
S11304C008952F923F924F925F926F927F928F92F4
S11304D09F92AF92BF92CF92DF92EF92FF920F93CF
S11304E01F93CF93DF93CDB7DEB7C85CD1090FB6A6
S11304F0F894DEBF0FBECDBF082F192F4B01198210
S11305001A821B821C82FE01359620E6DF011D92B1
S11305102A95E9F79F926F9320EC31E03F932F9354
S11305200E9403040F900F900F900F901814190459
S11305300CF053C0E02EF12E312C612C712C00E014
S113054010E00F2EFCECAF2EF1E0BF2EF02D0F2E9D
S1130550F2EDCF2EF1E0DF2EF02D0F2EF1EE4F2E27
S1130560F1E05F2EF02D212C1F930F93BF92AF92D9
S11305700E940304F70181917F01330C330C382A64
S11305801F923F921F928F93DF92CF920E94030497
S11305900F5F1F4FC801837099270FB6F894DEBF11
S11305A00FBECDBF892BA9F41F923F925F924F9249
S11305B00E940304E1E0F0E0EC0FFD1FE60DF71DDF
S11305C030823FEF631A730A0F900F900F900F90D1
S11305D0322C0815190541F602C0612C712CAE01AC
S11305E04F5F5F4F9E012B593F4F80E090E0DA014F
S11305F007C0FA016191AF01F90161939F0101966E
S1130600FD0101900020E9F73197BF016A1B7B0BC4
S11306108617970770F321E047E651E0CE018B5926
S11306209F4F0E9453008C01FE01E60DF71D1082BE
S11306301F938F938BEE91E09F938F930E940304FB
S11306400F900F900F900F90012B29F48CEF91E0F5
S11306500E94200406C08FEF898387E092E00E9405
S11306602004CE010196C853DF4F0FB6F894DEBFC5
S11306700FBECDBFDF91CF911F910F91FF90EF90EF
S1130680DF90CF90BF90AF909F908F907F906F90AE
S11306905F904F903F902F900895CF93DF93CDB705
S11306A0DEB7C456D1090FB6F894DEBF0FBECDBF76
S11306B00E949503E6E4F2E08EE091E09383828366
S11306C080E091E0918380830E94910385E0ECE1D6
S11306D0F1E0DE01119601900D928A95E1F7FE0199
S11306E036968FE5DF011D928A95E9F7CE010196D2
S11306F00E947C0160914202709143020E94610257
S11307009F938F9387E192E09F938F930E940304BA
S11307108CE292E00E9420040F900F900F900F90B3
S1130720FFCF88E48093B800089510924502109298
S113073044021092C50087E68093C400E1ECF0E027
S1130740808188618083E2ECF0E080818660808330
S11307500895CF93C82F8A3019F48DE00E94A9031D
S1130760E0ECF0E0908195FFFDCFC093C60080E0FF
S113077090E0CF910895E0ECF0E080818823ECF7DD
S11307808091C60008950F93083090F0982F872F1A
S1130790762F652F542F432F322F22270850F4CF62
S11307A0220F331F441F551F661F771F881F991F71
S11307B00A95B2F70F91089597FB10F81694000864
S11307C00F93083098F00850232F342F452F562FBD
S11307D0672F782F892F902DF4CF059497958795BF
S11307E07795679557954795379527950A95AAF76D
S11307F00F9108952A153B054C055D056E057F058F
S1130800800791070895A0E0B0E0E9E0F4E00C94DB
S1130810DE06AE014B5F5F4FFA0161917191AF014A
S113082080914802909149020E945004E2E00C94A5
S1130830FA0660914802709149020E9438060895B0
S11308400F931F93CF93DF93E0914802F0914902F5
S1130850238121FF1BC08C01D0E0C0E0F80181910D
S11308608F016091480270914902DB011896ED9165
S1130870FC911997882331F00995892B79F3DFEFDF
S1130880CFEFECCF8AE00995892B19F08FEF9FEF1A
S113089002C08D2F9C2FDF91CF911F910F9108954E
S11308A0ACE0B0E0E6E5F4E00C94CE067C016B012C
S11308B08A01FC0117821682838181FFBDC1CE01AA
S11308C001964C01F7019381F60193FD859193FF05
S11308D081916F01882309F4ABC1853239F493FD0A
S11308E0859193FF81916F01853229F4B70190E0DE
S11308F00E943806E7CF512C312C20E02032A0F49E
S11309008B3269F030F4803259F0833269F420611B
S11309102CC08D3239F0803339F4216026C0226036
S1130920246023C0286021C027FD27C030ED380F84
S11309303A3078F426FF06C0FAE05F9E300D1124A9
S1130940532E13C08AE0389E300D1124332E2062BA
S11309500CC08E3221F426FD6BC1206406C08C3697
S113096011F4206802C0883641F4F60193FD8591A4
S113097093FF81916F018111C1CF982F9F7D955471
S1130980933028F40C5F1F4FFFE3F9830DC08336C7
S113099031F0833771F0833509F05BC022C0F80170
S11309A0808189830E5F1F4F44244394512C54014A
S11309B015C03801F2E06F0E711CF801A080B180FF
S11309C026FF03C0652D70E002C06FEF7FEFC50105
S11309D02C870E942D062C0183012C852F77222E33
S11309E017C03801F2E06F0E711CF801A080B180CD
S11309F026FF03C0652D70E002C06FEF7FEFC501D5
S1130A002C870E9422062C012C852068222E83012B
S1130A1023FC1BC0832D90E048165906B0F4B7019F
S1130A2080E290E00E9438063A94F4CFF50127FC66
S1130A30859127FE81915F01B70190E00E943806FD
S1130A4031103A94F1E04F1A51084114510471F7EE
S1130A50E5C0843611F0893639F5F80127FF07C05F
S1130A6060817181828193810C5F1F4F08C0608116
S1130A707181072E000C880B990B0E5F1F4F2F7688
S1130A80722E97FF09C090958095709561957F4F60
S1130A908F4F9F4F2068722E2AE030E0A4010E94FD
S1130AA07006A82EA81844C0853729F42F7EB22ECC
S1130AB02AE030E025C0F22FF97FBF2E8F36C1F037
S1130AC018F4883579F0B4C0803719F0883721F0EC
S1130AD0AFC02F2F2061B22EB4FE0DC08B2D8460C9
S1130AE0B82E09C024FF0AC09F2F9660B92E06C0F5
S1130AF028E030E005C020E130E002C020E132E02F
S1130B00F801B7FE07C060817181828193810C5F17
S1130B101F4F06C06081718180E090E00E5F1F4F1F
S1130B20A4010E947006A82EA818FB2DFF777F2E23
S1130B3076FE0BC0372D3E7FA51450F474FE0AC018
S1130B4072FC08C0372D3E7E05C0BA2C372D03C079
S1130B50BA2C01C0B52C34FF0DC0FE01EA0DF11D05
S1130B608081803311F4397E09C032FF06C0B3940A
S1130B70B39404C0832F867809F0B39433FD13C073
S1130B8030FF06C05A2CB31418F4530C5B18B32C62
S1130B90B31468F4B70180E290E03C870E94380601
S1130BA0B3943C85F5CFB31410F43B1801C0312C39
S1130BB034FF12C0B70180E390E03C870E943806FE
S1130BC03C8532FF17C031FD03C088E790E002C0C6
S1130BD088E590E0B7010CC0832F867859F031FF87
S1130BE002C08BE201C080E237FD8DE2B70190E0E4
S1130BF00E943806A51438F4B70180E390E00E94FF
S1130C0038065A94F7CFAA94F401EA0DF11D8081B5
S1130C10B70190E00E943806A110F5CF332009F403
S1130C2051CEB70180E290E00E9438063A94F6CFA4
S1130C30F7018681978102C08FEF9FEF2C96E2E146
S1130C400C94EA06FC010590615070400110D8F73D
S1130C50809590958E0F9F1F0895FC016150704000
S1130C6001900110D8F7809590958E0F9F1F0895DD
S1130C700F931F93CF93DF93FB01238121FD03C0C7
S1130C808FEF9FEF28C022FF16C046815781248131
S1130C9035814217530744F4A081B1819D012F5F30
S1130CA03F4F318320838C93268137812F5F3F4FC1
S1130CB03783268310C0EB01092F182F0084F18598
S1130CC0E02D0995892BE1F68E819F8101969F8302
S1130CD08E83812F902FDF91CF911F910F910895D3
S1130CE0FA01AA27283051F1203181F1E8946F9359
S1130CF06E7F6E5F7F4F8F4F9F4FAF4FB1E03ED0FF
S1130D00B4E03CD0670F781F891F9A1FA11D680F9C
S1130D10791F8A1F911DA11D6A0F711D811D911DCF
S1130D20A11D20D009F468943F912AE0269F112444
S1130D303019305D3193DEF6CF010895462F4770A8
S1130D40405D4193B3E00FD0C9F7F6CF462F4F7003
S1130D50405D4A3318F0495D31FD4052419302D061
S1130D60A9F7EACFB4E0A695979587957795679507
S1130D70BA95C9F700976105710508959B01AC0107
S1130D800A2E06945795479537952795BA95C9F72E
S1130D90620F731F841F951FA01D08952F923F9209
S1130DA04F925F926F927F928F929F92AF92BF9277
S1130DB0CF92DF92EF92FF920F931F93CF93DF9323
S1130DC0CDB7DEB7CA1BDB0B0FB6F894DEBF0FBE80
S1130DD0CDBF09942A88398848885F846E847D84CD
S1130DE08C849B84AA84B984C884DF80EE80FD80CF
S1130DF00C811B81AA81B981CE0FD11D0FB6F89445
S1110E00DEBF0FBECDBFED010895F894FFCF05
S1130E0E00000001000000000000BB030000000011
S1130E1E000200000000A903000000007465737452
S1130E2E00000000000000000000000000000000B0
S1130E3E00000000000000000000000000000000A0
S1130E4E0000000000000000000000000000000090
S1130E5E0000000000000000000000000000000080
S1130E6E0000000000000000000000000000000070
S1130E7E0000000000000000000000000000000060
S1130E8E446174613A2025692C20000A616C6C441B
S1130E9E6174613A2025690A0025695E25693D0061
S1130EAE0A436865636B73756D3A2025690A000AF7
S1130EBE646174614C656E6774683A2025690A0032
S1130ECE6C656E6774683A2025690A000A693A25CA
S1130EDE69002062697473256920746D7025692C0C
S1130EEE000A636861722025630A000A0A43686572
S1130EFE636B73756D3A2025690A0A004E6F20657F
S1130F0E72726F72732E004572726F722064657402
S1130F1E65637465642E000A52656365697665645B
S1130F2E20646174613A2025730A0A00456E746563
S1130F3E72696E67206C6F6F70206E6F772E2E2E17
S1050F4E2E006F
S9030000FC
